:100000000C942A000C9434000C9434000C943400AA
:100010000C9434000C9434000C9434000C94340090
:100020000C9434000C9434000C9434000C94340080
:100030000C9434000C9434000C9434000C94340070
:100040000C9434000C9434000C9434000C94340060
:100050000C94340011241FBECFE5D8E0DEBFCDBF25
:100060000E946A000C94B1000C940000089882E091
:1000700080B986B7846086BF089506B607FEFDCFB7
:10008000089521B1287F30E0482F50E081E0241707
:10009000350709F080E0089584EA86BF0E943D009C
:1000A00088E00E94410091E0811101C090E0892F19
:1000B000089584E986BF089583B984E886BF0E94C5
:1000C0003D0088E10E94410091E0813009F090E01C
:1000D000892F08950E94360040E060E580E10E948B
:1000E000770045E966E086E00E949400FFCF1F9309
:1000F000CF93DF93C82FD62F142F0E944C0080ED92
:100100000E945C0080E00E945C00812F0E945C00E5
:100110008D2F0E945C008C2F0E945C000E94590071
:10012000DF91CF911F9108951F93CF93DF93182FE5
:10013000D62FC42F0E944C0080ED0E945C0084E00A
:100140000E945C00812F0E945C008D2F0E945C0049
:100150008C2F0E945C000E945900DF91CF911F916B
:060160000895F894FFCFA2
:00000001FF
