S00E0000427574746F6E2E737265639A
S11300000C944E000C9463000C9463000C946300F5
S11300100C9463000C9463000C9463000C946300D0
S11300200C9463000C9463000C9463000C946300C0
S11300300C9463000C9463000C9463000C946300B0
S11300400C9463000C9463000C9463000C946300A0
S11300500C946300700072007400760077007700DF
S113006077007700770077007700770077007700D4
S113007077007700770077007700770077007700C4
S113008077007700770077007700770077007700B4
S113009077007700700072007400760011241FBE90
S11300A0CFE5D8E0DEBFCDBF10E0A0E6B0E0E6E7E4
S11300B0F2E002C005900D92A837B107D9F70E946B
S11300C0FE000C9439010C94000090E0FC01E15412
S11300D0F109E432F10558F4E65DFF4F0C94330165
S11300E020E005C021E003C022E001C023E0822F0C
S11300F00895CF936830A0F5C62F4423C9F041304A
S113010089F50E946500E82FF0E0EE0FFF1FE0592B
S1130110FF4F0190F081E02D208181E090E002C04A
S1130120880F991FCA95E2F7822B808381E01BC058
S11301300E946500E82FF0E0EE0FFF1FE059FF4F2B
S11301400190F081E02D208181E090E002C0880FD1
S1130150991FCA95E2F780958223808381E003C0CA
S113016080E001C081E0CF910895CF936830A0F57D
S1130170C62F4423C9F0413089F50E946500E82F59
S1130180F0E0EE0FFF1FE859FF4F0190F081E02DE2
S1130190208181E090E002C0880F991FCA95E2F7A0
S11301A0822B808381E01BC00E946500E82FF0E071
S11301B0EE0FFF1FE859FF4F0190F081E02D2081E1
S11301C081E090E002C0880F991FCA95E2F78095FC
S11301D08223808381E003C080E001C081E0CF916D
S11301E008950E946500E82FF0E0EE0FFF1FE05A2B
S11301F0FF4F0190F081E02D8081089560E081E659
S11302000E942F0141E061E081E60E94B50040E0D8
S113021061E081E60E94790060E081E60E94F100DD
S11302208111FACF41E061E081E60E9479002FEF6D
S113023082E597E0215080409040E1F700C0000043
S113024040E061E081E60E9479002FEF82E597E0CB
S1130250215080409040E1F700C00000DDCF40E035
S11302600E94B5000895EE0FFF1F0590F491E02D54
S10902700994F894FFCF8D
S113027639003600330030003A00370034003100CC
S10B02863B0038003500320092
S9030000FC
