:100000000C944E000C946B000C946B000C946B00E1
:100010000C946B000C946B000C946B000C946B00B4
:100020000C946B000C946B000C946B000C946B00A4
:100030000C946B000C946B000C946B000C946B0094
:100040000C946B000C946B000C946B000C946B0084
:100050000C946B0078007A007C007E007F007F00AB
:100060007F007F007F007F007F007F007F007F0098
:100070007F007F007F007F007F007F007F007F0088
:100080007F007F007F007F007F007F007F007F0078
:100090007F007F0078007A007C007E0011241FBE64
:1000A000CFE5D8E0DEBFCDBF10E0A0E6B0E0E2E0F3
:1000B000F6E002C005900D92A438B107D9F720E010
:1000C000A4E8B0E001C01D92A838B207E1F70E9491
:1000D00060020C94FF020C94000090E0FC01E154DB
:1000E000F109E432F10558F4E65DFF4F0C94C402C7
:1000F00020E005C021E003C022E001C023E0822F00
:100100000895CF93C62F0E946D00E82FF0E0EE0F08
:10011000FF1FE059FF4F0190F081E02DC08381E087
:10012000CF910895CF936830A0F5C62F4423C9F02E
:10013000413089F50E946D00E82FF0E0EE0FFF1FBF
:10014000E059FF4F0190F081E02D208181E090E0A7
:1001500002C0880F991FCA95E2F7822B808381E045
:100160001BC00E946D00E82FF0E0EE0FFF1FE0596A
:10017000FF4F0190F081E02D208181E090E002C0EE
:10018000880F991FCA95E2F780958223808381E0CA
:1001900003C080E001C081E0CF910895CF93683023
:1001A000A0F5C62F4423C9F0413089F50E946D00A7
:1001B000E82FF0E0EE0FFF1FE859FF4F0190F081AC
:1001C000E02D208181E090E002C0880F991FCA9540
:1001D000E2F7822B808381E01BC00E946D00E82F34
:1001E000F0E0EE0FFF1FE859FF4F0190F081E02D86
:1001F000208181E090E002C0880F991FCA95E2F744
:1002000080958223808381E003C080E001C081E08B
:10021000CF9108950E946D00E82FF0E0EE0FFF1FD0
:10022000E05AFF4F0190F081E02D80810895CF9337
:10023000C82F40E062E083E60E94920040E060E068
:1002400083E60E9492006C2F607F84E60E9481000A
:1002500041E061E083E60E94920080E090E00000CF
:100260000196803921E09207D1F710928400109214
:100270008500109286001092870040E061E083E6DE
:100280000E94920080E090E000000196803223E01E
:100290009207D1F710928400109285001092860088
:1002A000109287006C2F6295607F84E60E94810027
:1002B00041E061E083E60E94920080E090E000006F
:1002C0000196803921E09207D1F7109284001092B4
:1002D0008500109286001092870040E061E083E67E
:1002E0000E94920080E090E000000196803223E0BE
:1002F0009207D1F710928400109285001092860028
:1003000010928700CF91089580E090E00000019660
:10031000803727E19207D1F7109284001092850070
:10032000109286001092870041E064E084E60E940B
:10033000CE0041E065E084E60E94CE0041E066E048
:1003400084E60E94CE0041E067E084E60E94CE0091
:1003500041E060E083E60E94CE0041E061E083E698
:100360000E94CE0041E062E083E60E94CE0083E37B
:100370000E94170182E30E94170188E20E94170180
:100380008EE00E94170181E00E9417018FE99FE033
:100390000197F1F700C0000082E00E94170186E09B
:1003A0000E9417010895CF93C82F41E060E083E6D3
:1003B0000E94920040E062E083E60E9492006C2F6F
:1003C000607F84E60E94810041E061E083E60E9454
:1003D000920080E090E000000196803921E09207D1
:1003E000D1F710928400109285001092860010922E
:1003F000870040E061E083E60E94920080E090E0A8
:1004000000000196803223E09207D1F71092840019
:100410001092850010928600109287006C2F6295D2
:10042000607F84E60E94810041E061E083E60E94F3
:10043000920080E090E000000196803921E0920770
:10044000D1F71092840010928500109286001092CD
:10045000870040E061E083E60E94920080E090E047
:1004600000000196803223E09207D1F710928400B9
:10047000109285001092860010928700CF91089507
:100480000F931F93CF93FC018081882359F08F0134
:10049000C0E00E94D301CF5FF801EC0FF11D808115
:1004A0008111F7CFCF911F910F91089581E00E94A4
:1004B00017018FE99FE00197F1F700C00000089550
:1004C0000E94A4020E94840160E070E081E690E056
:1004D0000E94990288E790E00E94400260E070E08C
:1004E00081E690E00E949D02892B51F48DE40E94E8
:1004F000BC028FE790E00E9440020E945602EECFBD
:1005000060E070E081E690E00E949D02892B31F36B
:100510000E94C002182F0E94560248E0C0E0D0E0BE
:10052000BE01812F90E00E94CA02CE010E944002CB
:10053000D5CF40E00E94CE0008950E940A018111AB
:1005400001C0089581E0089541E065E082E60E94DF
:10055000CE0040E066E082E60E94CE0041E067E027
:1005600082E60E94CE0041E064E082E60E94CE0076
:100570008DB181658DB908958FB9779BFECF0895B0
:10058000779BFECF8FB10895EE0FFF1F0590F4917A
:10059000E02D0994BB274A3031F4992322F4BDE2BF
:1005A000909581959F4F0C94D602BB27FB01552750
:1005B000AA27880F991FAA1FA41710F0A41B8395C0
:1005C0005051B9F7A05DAA3308F0A95DA193009737
:1005D00079F7B111B1931192CB010C94EF02DC01C8
:1005E000FC01672F71917723E1F7329704C07C916A
:1005F0006D9370836291AE17BF07C8F30895F894A6
:02060000FFCF2A
:1006020039003600330030003A0037003400310040
:100612003B0038003500320068692079616400735C
:04062200656E74008D
:00000001FF
