S015000047656E6572616C5F54696D65722E73726563F1
S11300000C942A000C9434000C9434000C943400A6
S11300100C9434000C9434000C9434000C940701B8
S11300200C9434000C9434000C9434000C9434007C
S11300300C9434000C9434000C9434000C9434006C
S11300400C9434000C9434000C9434000C9434005C
S11300500C94340011241FBECFE5D8E0DEBFCDBF21
S11300600E9419010C9432010C940000CF93DF9389
S113007000D000D01F92CDB7DEB749835A836B837B
S11300807C838D838FB5942F9370892B8FBD8EB510
S1130090942F9670892B8EBD8A819B81883091051F
S11300A0C1F038F48630910521F138F5892B69F0D7
S11300B028C0811521E09207A1F0811524E0920760
S11300C0A1F080349105E9F408C08EB581608EBD3D
S11300D01BC08EB582608EBD17C08EB583608EBD89
S11300E013C08EB584608EBD0FC08EB585608EBD85
S11300F00BC08EB586608EBD07C08EB587608EBD81
S113010003C08EB58E7F8EBD8D81882319F081301A
S113011029F008C089B7886189BF07C089B784609E
S113012089BF03C089B78B7F89BF411122C0723058
S113013059F0733081F07130A9F48EB580618EBDB1
S11301408FB580648FBD5AC08EB580628EBD8FB569
S113015080688FBD53C08EB580638EBD8EB5806CB4
S11301608EBD4CC08EB58F7E8EBD8EB58F7B8EBD01
S113017045C0453011F5723059F0733081F071305B
S1130180A9F48EB580618EBD8FB580648FBD36C0F5
S11301908EB580628EBD8FB580688FBD2FC08EB541
S11301A080638EBD8EB5806C8EBD28C08EB58F7E6B
S11301B08EBD8EB58F7B8EBD21C0723059F07330E9
S11301C081F07130A9F48EB580618EBD8FB58064E5
S11301D08FBD14C08EB580628EBD8FB580688FBD13
S11301E00DC08EB580638EBD8EB5806C8EBD06C08D
S11301F08EB58F7E8EBD8EB58F7B8EBD81E00F90C8
S11302000F900F900F900F90DF91CF9108951F9250
S11302100F920FB60F9211248F939F938FEF9FEF3E
S11302209BBD8ABD9F918F910F900FBE0F901F9021
S11302301895CF93DF9300D000D01F92CDB7DEB7CF
S11302408FE0898380E094E09B838A8382E08C83BF
S11302508D9A789449815A816B817C818D810E9429
S10B02603600FFCFF894FFCF34
S9030000FC
