S00C00004750494F2E73726563E9
S11300000C944E000C9463000C9463000C946300F5
S11300100C9463000C9463000C9463000C946300D0
S11300200C9463000C9463000C9463000C946300C0
S11300300C9463000C9463000C9463000C946300B0
S11300400C9463000C9463000C9463000C946300A0
S11300500C946300700072007400760077007700DF
S113006077007700770077007700770077007700D4
S113007077007700770077007700770077007700C4
S113008077007700770077007700770077007700B4
S113009077007700700072007400760011241FBE90
S11300A0CFE5D8E0DEBFCDBF10E0A0E6B0E0E4E8E5
S11300B0F1E002C005900D92A037B107D9F70E9474
S11300C09B000C94C0000C94000090E0FC01E154EF
S11300D0F109E432F10558F4E65DFF4F0C94BA00DF
S11300E020E005C021E003C022E001C023E0822F0C
S11300F00895CF93C62F0E946500E82FF0E0EE0F1D
S1130100FF1FE05AFF4F0190F081E02DC08381E092
S1130110CF910895CF93C62F0E946500E82FF0E099
S1130120EE0FFF1FE859FF4F0190F081E02DC083CF
S113013081E0CF9108956FEF81E40E9479006FEF21
S113014081E60E948A002FEF82E597E021508040EB
S11301509040E1F700C0000060E081E60E948A0060
S11301602FEF82E597E0215080409040E1F700C0F6
S11301700000E5CFEE0FFF1F0590F491E02D0994E8
S1070180F894FFCF1D
S11301843A003700340031003B00380035003200B7
S9030000FC
