:100000000C942A000C943C000C943C000C943C0092
:100010000C943C000C943C000C943C000C943C0070
:100020000C943C000C943C000C943C000C943C0060
:100030000C943C000C943C000C943C000C943C0050
:100040000C943C000C943C000C943C000C943C0040
:100050000C943C0011241FBECFE5D8E0DEBFCDBF1D
:1000600020E0A0E6B0E001C01D92A436B207E1F79F
:100070000E9463010C94FF010C940000089882E038
:1000800080B986B7846086BF089506B607FEFDCFA7
:10009000089521B1287F30E0482F50E081E02417F7
:1000A000350709F080E0089584EA86BF0E94450084
:1000B00088E00E94490091E0811101C090E0892F01
:1000C000089584E986BF089583B984E886BF0E94B5
:1000D000450088E10E94490091E0813009F090E0FC
:1000E000892F089586B7806486BF0895CF9384E8EA
:1000F00086BF0E944500C3B188E50E944900813057
:1001000021F40E9472008C2F01C080E0CF910895ED
:10011000AB98AA98982F907F92BBAC9A20E030E0E1
:1001200000002F5F3F4F203991E03907C9F7109247
:100130006000109261001092620010926300AC980F
:1001400020E030E000002F5F3F4F20349CE939076A
:10015000C9F7109260001092610010926200109234
:1001600063008295807F82BBAC9A80E090E00000C3
:100170000196803921E09207D1F710926000109229
:1001800061001092620010926300AC9880E090E0F1
:1001900000000196803921E09207D1F710926000AB
:1001A000109261001092620010926300089580E046
:1001B00090E000000196803D27E09207D1F7109271
:1001C00060001092610010926200109263008C9A9D
:1001D0008D9A8E9A8F9AA29AA49AA39A83E30E94E8
:1001E000880082E30E94880088E20E9488008EE0F6
:1001F0000E94880081E00E9488008FE99FE00197BB
:10020000F1F700C0000082E00E94880086E00E94B2
:1002100088000895AA9AAB98982F907F92BBAC9AC9
:1002200020E030E000002F5F3F4F203991E0390798
:10023000C9F7109260001092610010926200109253
:100240006300AC9820E030E000002F5F3F4F203982
:1002500091E03907C9F71092600010926100109286
:100260006200109263008295807F82BBAC9A80E02E
:1002700090E000000196803921E09207D1F71092BA
:100280006000109261001092620010926300AC98BE
:1002900080E090E000000196803921E09207D1F7DC
:1002A0001092600010926100109262001092630040
:1002B000089581E00E9488008FE99FE00197F1F79F
:1002C00000C000000895CF93DF9300D01F92CDB7F8
:1002D000DEB70E94D7000E943E0040E050E065E596
:1002E00070E085E090E00E94990145E950E066E009
:1002F00070E086E090E00E94B601AE014F5F5F4F74
:10030000BE016E5F7F4FCE0103960E94D3018B81A9
:100310000E940A018AE30E940A018A810E940A015E
:100320008AE30E940A0189810E940A010E94590100
:10033000E4CF1F93CF93DF93C82FD62F142F0E94A3
:10034000540080ED0E94640080E00E946400812FD0
:100350000E9464008D2F0E9464008C2F0E94640014
:100360000E946100DF91CF911F9108951F93CF9359
:10037000DF93182FD62FC42F0E94540080ED0E94C7
:10038000640084E00E946400812F0E9464008D2F2D
:100390000E9464008C2F0E9464000E946100DF9123
:1003A000CF911F910895EF92FF920F931F93CF93D8
:1003B000DF93EC018B017A010E94540080ED0E94D2
:1003C000640080E00E9464000E9461000E9454006A
:1003D00081ED0E9464000E947600F70180830E94F4
:1003E0007600F80180830E94760088830E94610075
:1003F000DF91CF911F910F91FF90EF900895F894A6
:02040000FFCF2C
:00000001FF
