:100000000C942A000C943C000C943C000C943C0092
:100010000C943C000C943C000C943C000C943C0070
:100020000C943C000C943C000C943C000C943C0060
:100030000C943C000C943C000C943C000C943C0050
:100040000C943C000C943C000C943C000C943C0040
:100050000C943C0011241FBECFE5D8E0DEBFCDBF1D
:1000600020E0A0E6B0E001C01D92A436B207E1F79F
:100070000E9471000C947E000C940000379A27B106
:10008000E0E6F0E0908130E4939FC0011124822BE0
:1000900087B996B182818370892B86B927B1918106
:1000A00030E2939FC0011124822B87B996B18381DE
:1000B000880F880F880F892B86B9089597B18770AC
:1000C000982B97B9369A349BFECF24B135B1369A26
:1000D00088E090E002C0880F991F3A95E2F7822BE2
:1000E00008951ABA8FEF84BB81BB12BA15BA0E9469
:1000F0003E0085E00E945E0085BBFBCFF894FFCFF9
:00000001FF
