S00C0000756172742E737265635C
S11300000C944E000C9463000C9463000C946300F5
S11300100C9463000C9463000C9463000C946300D0
S11300200C9463000C9463000C9463000C946300C0
S11300300C9463000C9463000C9463000C946300B0
S11300400C9463000C9463000C9463000C946300A0
S11300500C946300700072007400760077007700DF
S113006077007700770077007700770077007700D4
S113007077007700770077007700770077007700C4
S113008077007700770077007700770077007700B4
S113009077007700700072007400760011241FBE90
S11300A0CFE5D8E0DEBFCDBF10E0A0E6B0E0E8E1E8
S11300B0F2E002C005900D92A037B107D9F70E9473
S11300C0C6000C940A010C94000090E0FC01E15479
S11300D0F109E432F10558F4E65DFF4F0C94040194
S11300E020E005C021E003C022E001C023E0822F0C
S11300F00895CF93C62F0E946500E82FF0E0EE0F1D
S1130100FF1FE859FF4F0190F081E02DC08381E08B
S1130110CF910895CF936830A0F5C62F4423C9F03A
S1130120413089F50E946500E82FF0E0EE0FFF1FD3
S1130130E05AFF4F0190F081E02D208181E090E0B2
S113014002C0880F991FCA95E2F7822B808381E051
S11301501BC00E946500E82FF0E0EE0FFF1FE05A7D
S1130160FF4F0190F081E02D208181E090E002C0FA
S1130170880F991FCA95E2F780958223808381E0D6
S113018003C080E001C081E0CF91089540E060E0C9
S113019084E60E948A0041E061E084E60E948A00CD
S11301A00E94E5008FEF8ABB1BBA0E94FE000E94EA
S11301B0ED00059729F46FEF81E60E947900F7CFEF
S11301C060E081E60E947900F2CF8FEF89B910BC1C
S11301D088E18AB98EE880BD08955F9BFECF9BB10C
S11301E08AB14CB19C7139F486958170382F20E026
S11301F0C901842B08958FEF9FEF08955F9B03C07F
S11302008CB15F99FDCF0895EE0FFF1F0590F49117
S10B0210E02D0994F894FFCFDE
S11302183A003700340031003B0038003500320022
S9030000FC
