S01A00004C43445F325831365F345831365F544558542E73726563F1
S11300000C942A000C9447000C9447000C9447006D
S11300100C9447000C9447000C9447000C94470040
S11300200C9447000C9447000C9447000C94470030
S11300300C9447000C9447000C9447000C94470020
S11300400C9447000C9447000C9447000C94470010
S11300500C94470011241FBECFE5D8E0DEBFCDBF0E
S113006010E0A0E6B0E0E6EEF2E002C005900D92EA
S1130070A836B107D9F720E0A8E6B0E001C01D9288
S1130080AC36B207E1F70E9444010C9471010C9460
S11300900000AA98A898982F907F92BBA99A20E074
S11300A030E000002F5F3F4F203991E03907C9F756
S11300B0109268001092690010926A0010926B000E
S11300C0A99820E030E000002F5F3F4F20349CE9E6
S11300D03907C9F7109268001092690010926A00FB
S11300E010926B008295807F82BBA99A80E090E099
S11300F000000196803921E09207D1F71092680040
S11301001092690010926A0010926B00A99880E026
S113011090E000000196803921E09207D1F7109217
S113012068001092690010926A0010926B000895A2
S113013080E090E000000196803727E19207D1F734
S1130140109268001092690010926A0010926B007D
S11301508C9A8D9A8E9A8F9AA09AA19AA29A83E3E6
S11301600E94490082E30E94490088E20E944900FB
S11301708EE00E94490081E00E9449008FE99FE0DF
S11301800197F1F700C0000082E00E94490086E078
S11301900E9449000895A89AAA98982F907F92BB2C
S11301A0A99A20E030E000002F5F3F4F203991E012
S11301B03907C9F7109268001092690010926A001A
S11301C010926B00A99820E030E000002F5F3F4FB1
S11301D0203991E03907C9F710926800109269003C
S11301E010926A0010926B008295807F82BBA99A5C
S11301F080E090E000000196803921E09207D1F779
S1130200109268001092690010926A0010926B00BC
S1130210A99880E090E000000196803921E09207DF
S1130220D1F7109268001092690010926A0010923F
S11302306B0008950F931F93CF93FC018081882353
S113024059F08F01C0E00E94CB00CF5FF801EC0FA2
S1130250F11D80818111F7CFCF911F910F910895E6
S113026081E00E94490080E090E000000196803225
S113027023E09207D1F7109268001092690010925F
S11302806A0010926B0008950E94980080E690E046
S11302900E941A0180E49DE0A3E0B0E00000019711
S11302A0A109B109D9F70EC000000197A109B1094C
S11302B0D9F7109268001092690010926A001092A7
S11302C06B00E4CF109268001092690010926A00EB
S11302D010926B000E94300180E49DE0A3E0B0E046
S10902E0E3CFF894FFCF08
S10B02E67961207261620000DD
S9030000FC
