:100000000C942A000C9434000C9434000C943400AA
:100010000C9434000C9434000C9434000C94340090
:100020000C9434000C9434000C9436000C9434007E
:100030000C9434000C9434000C9434000C94340070
:100040000C9434000C9434000C9434000C94340060
:100050000C94340011241FBECFE5D8E0DEBFCDBF25
:100060000E945B000C9424010C9400001F920F92DC
:100070000FB60F9211242F933F934F935F936F937B
:100080007F938F939F93AF93BF93EF93FF938FEFE4
:100090000E942201FF91EF91BF91AF919F918F91AB
:1000A0007F916F915F914F913F912F910F900FBE74
:1000B0000F901F901895CF93DF9300D000D01F9220
:1000C000CDB7DEB783E0898380E094E09B838A83A9
:1000D00082E08C83BB9A789449815A816B817C81C0
:1000E0008D810E947400FFCFCF93DF9300D000D0AA
:1000F0001F92CDB7DEB749835A836B837C838D8390
:10010000423041F0433051F0413061F483B78064B4
:1001100083BF0BC083B7886083BF07C083B7886481
:1001200083BF03C083B78F7B83BF8A819B81883065
:100130009105C1F038F48630910521F138F5892B0D
:1001400069F028C0811521E09207A1F0811524E013
:100150009207A1F080349105E9F408C083B781606B
:1001600083BF1BC083B7826083BF17C083B7836020
:1001700083BF13C083B7846083BF0FC083B785601C
:1001800083BF0BC083B7866083BF07C083B7876018
:1001900083BF03C083B78E7F83BF8D81882319F00F
:1001A000813029F008C089B7826089BF07C089B74C
:1001B000816089BF03C089B78E7F89BF411116C096
:1001C000723041F0733051F0713061F483B7806167
:1001D00083BF2FC083B7806283BF2BC083B7806388
:1001E00083BF27C083B78F7E83BF23C0433089F48A
:1001F000723019F0733029F008C083B7806283BF72
:1002000018C083B7806383BF14C083B78F7E83BF5A
:1002100010C0723019F0733029F008C083B78062C3
:1002200083BF07C083B7806383BF03C083B78F7E5C
:1002300083BF81E00F900F900F900F900F90DF9190
:0C024000CF9108958CBF0895F894FFCF73
:00000001FF
