S00E0000427574746F6E2E737265639A
S11300000C944E000C946B000C946B000C946B00DD
S11300100C946B000C946B000C946B000C946B00B0
S11300200C946B000C946B000C946B000C946B00A0
S11300300C946B000C946B000C946B000C946B0090
S11300400C946B000C946B000C946B000C946B0080
S11300500C946B0078007A007C007E007F007F00A7
S11300607F007F007F007F007F007F007F007F0094
S11300707F007F007F007F007F007F007F007F0084
S11300807F007F007F007F007F007F007F007F0074
S11300907F007F0078007A007C007E0011241FBE60
S11300A0CFE5D8E0DEBFCDBF10E0A0E6B0E0EAEADD
S11300B0F2E002C005900D92A837B107D9F720E00D
S11300C0A8E7B0E001C01D92AC37B207E1F70E9487
S11300D006010C9453010C94000090E0FC01E154DF
S11300E0F109E432F10558F4E65DFF4F0C944D013B
S11300F020E005C021E003C022E001C023E0822FFC
S11301000895CF936830A0F5C62F4423C9F0413039
S113011089F50E946D00E82FF0E0EE0FFF1FE05913
S1130120FF4F0190F081E02D208181E090E002C03A
S1130130880F991FCA95E2F7822B808381E01BC048
S11301400E946D00E82FF0E0EE0FFF1FE059FF4F13
S11301500190F081E02D208181E090E002C0880FC1
S1130160991FCA95E2F780958223808381E003C0BA
S113017080E001C081E0CF910895CF936830A0F56D
S1130180C62F4423C9F0413089F50E946D00E82F41
S1130190F0E0EE0FFF1FE859FF4F0190F081E02DD2
S11301A0208181E090E002C0880F991FCA95E2F790
S11301B0822B808381E01BC00E946D00E82FF0E059
S11301C0EE0FFF1FE859FF4F0190F081E02D2081D1
S11301D081E090E002C0880F991FCA95E2F78095EC
S11301E08223808381E003C080E001C081E0CF915D
S11301F008950E946D00E82FF0E0EE0FFF1FE05A13
S1130200FF4F0190F081E02D8081089560E081E648
S11302100E94490141E061E081E60E94BD0040E0A6
S113022061E081E60E94810060E081E60E94F900BD
S11302308111FACF41E061E081E60E94810080EC07
S113024094EDA1E0B0E000000197A109B109D9F74C
S11302500EC000000197A109B109D9F710927800E6
S11302601092790010927A0010927B00DDCF1092E8
S113027078001092790010927A0010927B0040E08E
S113028061E081E60E94810080EC94EDA1E0B0E0A1
S1130290E0CF40E00E94BD000895EE0FFF1F0590DF
S10D02A0F491E02D0994F894FFCFC7
S11302AA39003600330030003A0037003400310098
S10B02BA3B003800350032005E
S9030000FC
